{
  "contractName": "SpectreToken",
  "abi": [
    {
      "constant": true,
      "inputs": [],
      "name": "name",
      "outputs": [
        {
          "name": "",
          "type": "string"
        }
      ],
      "payable": false,
      "stateMutability": "view",
      "type": "function"
    },
    {
      "constant": true,
      "inputs": [],
      "name": "totalSupply",
      "outputs": [
        {
          "name": "",
          "type": "uint256"
        }
      ],
      "payable": false,
      "stateMutability": "view",
      "type": "function"
    },
    {
      "constant": true,
      "inputs": [],
      "name": "standard",
      "outputs": [
        {
          "name": "",
          "type": "string"
        }
      ],
      "payable": false,
      "stateMutability": "view",
      "type": "function"
    },
    {
      "constant": true,
      "inputs": [
        {
          "name": "",
          "type": "address"
        }
      ],
      "name": "balanceOf",
      "outputs": [
        {
          "name": "",
          "type": "uint256"
        }
      ],
      "payable": false,
      "stateMutability": "view",
      "type": "function"
    },
    {
      "constant": true,
      "inputs": [],
      "name": "symbol",
      "outputs": [
        {
          "name": "",
          "type": "string"
        }
      ],
      "payable": false,
      "stateMutability": "view",
      "type": "function"
    },
    {
      "constant": true,
      "inputs": [
        {
          "name": "",
          "type": "address"
        },
        {
          "name": "",
          "type": "address"
        }
      ],
      "name": "allowance",
      "outputs": [
        {
          "name": "",
          "type": "uint256"
        }
      ],
      "payable": false,
      "stateMutability": "view",
      "type": "function"
    },
    {
      "anonymous": false,
      "inputs": [
        {
          "indexed": true,
          "name": "_from",
          "type": "address"
        },
        {
          "indexed": true,
          "name": "_to",
          "type": "address"
        },
        {
          "indexed": false,
          "name": "_value",
          "type": "uint256"
        }
      ],
      "name": "Transfer",
      "type": "event"
    },
    {
      "anonymous": false,
      "inputs": [
        {
          "indexed": true,
          "name": "_owner",
          "type": "address"
        },
        {
          "indexed": true,
          "name": "_spender",
          "type": "address"
        },
        {
          "indexed": false,
          "name": "_value",
          "type": "uint256"
        }
      ],
      "name": "Approval",
      "type": "event"
    },
    {
      "constant": false,
      "inputs": [
        {
          "name": "_initialSupply",
          "type": "uint256"
        }
      ],
      "name": "DappToken",
      "outputs": [],
      "payable": false,
      "stateMutability": "nonpayable",
      "type": "function"
    },
    {
      "constant": false,
      "inputs": [
        {
          "name": "_to",
          "type": "address"
        },
        {
          "name": "_value",
          "type": "uint256"
        }
      ],
      "name": "transfer",
      "outputs": [
        {
          "name": "success",
          "type": "bool"
        }
      ],
      "payable": false,
      "stateMutability": "nonpayable",
      "type": "function"
    },
    {
      "constant": false,
      "inputs": [
        {
          "name": "_spender",
          "type": "address"
        },
        {
          "name": "_value",
          "type": "uint256"
        }
      ],
      "name": "approve",
      "outputs": [
        {
          "name": "success",
          "type": "bool"
        }
      ],
      "payable": false,
      "stateMutability": "nonpayable",
      "type": "function"
    },
    {
      "constant": false,
      "inputs": [
        {
          "name": "_from",
          "type": "address"
        },
        {
          "name": "_to",
          "type": "address"
        },
        {
          "name": "_value",
          "type": "uint256"
        }
      ],
      "name": "transferFrom",
      "outputs": [
        {
          "name": "success",
          "type": "bool"
        }
      ],
      "payable": false,
      "stateMutability": "nonpayable",
      "type": "function"
    }
  ],
  "bytecode": "0x60806040526040518060400160405280600d81526020017f5370656374726520546f6b656e000000000000000000000000000000000000008152506000908051906020019061004f9291906100fa565b506040518060400160405280600481526020017f53504543000000000000000000000000000000000000000000000000000000008152506001908051906020019061009b9291906100fa565b506040518060400160405280601281526020017f5370656374726520546f6b656e2076312e300000000000000000000000000000815250600290805190602001906100e79291906100fa565b503480156100f457600080fd5b5061019f565b828054600181600116156101000203166002900490600052602060002090601f016020900481019282601f1061013b57805160ff1916838001178555610169565b82800160010185558215610169579182015b8281111561016857825182559160200191906001019061014d565b5b509050610176919061017a565b5090565b61019c91905b80821115610198576000816000905550600101610180565b5090565b90565b610be5806101ae6000396000f3fe608060405234801561001057600080fd5b506004361061009e5760003560e01c806370a082311161006657806370a08231146102b357806395d89b411461030b578063a9059cbb1461038e578063d9901ce4146103f4578063dd62ed3e146104225761009e565b806306fdde03146100a3578063095ea7b31461012657806318160ddd1461018c57806323b872dd146101aa5780635a3b7e4214610230575b600080fd5b6100ab61049a565b6040518080602001828103825283818151815260200191508051906020019080838360005b838110156100eb5780820151818401526020810190506100d0565b50505050905090810190601f1680156101185780820380516001836020036101000a031916815260200191505b509250505060405180910390f35b6101726004803603604081101561013c57600080fd5b81019080803573ffffffffffffffffffffffffffffffffffffffff16906020019092919080359060200190929190505050610538565b604051808215151515815260200191505060405180910390f35b61019461062a565b6040518082815260200191505060405180910390f35b610216600480360360608110156101c057600080fd5b81019080803573ffffffffffffffffffffffffffffffffffffffff169060200190929190803573ffffffffffffffffffffffffffffffffffffffff16906020019092919080359060200190929190505050610630565b604051808215151515815260200191505060405180910390f35b61023861089b565b6040518080602001828103825283818151815260200191508051906020019080838360005b8381101561027857808201518184015260208101905061025d565b50505050905090810190601f1680156102a55780820380516001836020036101000a031916815260200191505b509250505060405180910390f35b6102f5600480360360208110156102c957600080fd5b81019080803573ffffffffffffffffffffffffffffffffffffffff169060200190929190505050610939565b6040518082815260200191505060405180910390f35b610313610951565b6040518080602001828103825283818151815260200191508051906020019080838360005b83811015610353578082015181840152602081019050610338565b50505050905090810190601f1680156103805780820380516001836020036101000a031916815260200191505b509250505060405180910390f35b6103da600480360360408110156103a457600080fd5b81019080803573ffffffffffffffffffffffffffffffffffffffff169060200190929190803590602001909291905050506109ef565b604051808215151515815260200191505060405180910390f35b6104206004803603602081101561040a57600080fd5b8101908080359060200190929190505050610b46565b005b6104846004803603604081101561043857600080fd5b81019080803573ffffffffffffffffffffffffffffffffffffffff169060200190929190803573ffffffffffffffffffffffffffffffffffffffff169060200190929190505050610b94565b6040518082815260200191505060405180910390f35b60008054600181600116156101000203166002900480601f0160208091040260200160405190810160405280929190818152602001828054600181600116156101000203166002900480156105305780601f1061050557610100808354040283529160200191610530565b820191906000526020600020905b81548152906001019060200180831161051357829003601f168201915b505050505081565b600081600560003373ffffffffffffffffffffffffffffffffffffffff1673ffffffffffffffffffffffffffffffffffffffff16815260200190815260200160002060008573ffffffffffffffffffffffffffffffffffffffff1673ffffffffffffffffffffffffffffffffffffffff168152602001908152602001600020819055508273ffffffffffffffffffffffffffffffffffffffff163373ffffffffffffffffffffffffffffffffffffffff167f8c5be1e5ebec7d5bd14f71427d1e84f3dd0314c0f7b2291e5b200ac8c7c3b925846040518082815260200191505060405180910390a36001905092915050565b60035481565b6000600460008573ffffffffffffffffffffffffffffffffffffffff1673ffffffffffffffffffffffffffffffffffffffff1681526020019081526020016000205482111561067e57600080fd5b600560008573ffffffffffffffffffffffffffffffffffffffff1673ffffffffffffffffffffffffffffffffffffffff16815260200190815260200160002060003373ffffffffffffffffffffffffffffffffffffffff1673ffffffffffffffffffffffffffffffffffffffff1681526020019081526020016000205482111561070757600080fd5b81600460008673ffffffffffffffffffffffffffffffffffffffff1673ffffffffffffffffffffffffffffffffffffffff1681526020019081526020016000206000828254039250508190555081600460008573ffffffffffffffffffffffffffffffffffffffff1673ffffffffffffffffffffffffffffffffffffffff1681526020019081526020016000206000828254019250508190555081600560008673ffffffffffffffffffffffffffffffffffffffff1673ffffffffffffffffffffffffffffffffffffffff16815260200190815260200160002060003373ffffffffffffffffffffffffffffffffffffffff1673ffffffffffffffffffffffffffffffffffffffff168152602001908152602001600020600082825403925050819055508273ffffffffffffffffffffffffffffffffffffffff168473ffffffffffffffffffffffffffffffffffffffff167fddf252ad1be2c89b69c2b068fc378daa952ba7f163c4a11628f55a4df523b3ef846040518082815260200191505060405180910390a3600190509392505050565b60028054600181600116156101000203166002900480601f0160208091040260200160405190810160405280929190818152602001828054600181600116156101000203166002900480156109315780601f1061090657610100808354040283529160200191610931565b820191906000526020600020905b81548152906001019060200180831161091457829003601f168201915b505050505081565b60046020528060005260406000206000915090505481565b60018054600181600116156101000203166002900480601f0160208091040260200160405190810160405280929190818152602001828054600181600116156101000203166002900480156109e75780601f106109bc576101008083540402835291602001916109e7565b820191906000526020600020905b8154815290600101906020018083116109ca57829003601f168201915b505050505081565b600081600460003373ffffffffffffffffffffffffffffffffffffffff1673ffffffffffffffffffffffffffffffffffffffff168152602001908152602001600020541015610a3d57600080fd5b81600460003373ffffffffffffffffffffffffffffffffffffffff1673ffffffffffffffffffffffffffffffffffffffff1681526020019081526020016000206000828254039250508190555081600460008573ffffffffffffffffffffffffffffffffffffffff1673ffffffffffffffffffffffffffffffffffffffff168152602001908152602001600020600082825401925050819055508273ffffffffffffffffffffffffffffffffffffffff163373ffffffffffffffffffffffffffffffffffffffff167fddf252ad1be2c89b69c2b068fc378daa952ba7f163c4a11628f55a4df523b3ef846040518082815260200191505060405180910390a36001905092915050565b80600460003373ffffffffffffffffffffffffffffffffffffffff1673ffffffffffffffffffffffffffffffffffffffff168152602001908152602001600020819055508060038190555050565b600560205281600052604060002060205280600052604060002060009150915050548156fea165627a7a7230582077684928f2009423a1a086c4a187b0e69dce1a798fac7ef11d03aa159d0811100029",
  "source": "pragma solidity ^0.5.8;\n\ncontract SpectreToken {\n    string  public name = \"Spectre Token\";\n    string  public symbol = \"SPEC\";\n    string  public standard = \"Spectre Token v1.0\";\n    uint256 public totalSupply;\n\n    event Transfer(\n        address indexed _from,\n        address indexed _to,\n        uint256 _value\n    );\n\n    event Approval(\n        address indexed _owner,\n        address indexed _spender,\n        uint256 _value\n    );\n\n    mapping(address => uint256) public balanceOf;\n    mapping(address => mapping(address => uint256)) public allowance;\n\n    function DappToken (uint256 _initialSupply) public {\n        balanceOf[msg.sender] = _initialSupply;\n        totalSupply = _initialSupply;\n    }\n\n    function transfer(address _to, uint256 _value) public returns (bool success) {\n        require(balanceOf[msg.sender] >= _value);\n\n        balanceOf[msg.sender] -= _value;\n        balanceOf[_to] += _value;\n\n        emit Transfer(msg.sender, _to, _value);\n\n        return true;\n    }\n\n    function approve(address _spender, uint256 _value) public returns (bool success) {\n        allowance[msg.sender][_spender] = _value;\n\n        emit Approval(msg.sender, _spender, _value);\n\n        return true;\n    }\n\n    function transferFrom(address _from, address _to, uint256 _value) public returns (bool success) {\n        require(_value <= balanceOf[_from]);\n        require(_value <= allowance[_from][msg.sender]);\n\n        balanceOf[_from] -= _value;\n        balanceOf[_to] += _value;\n\n        allowance[_from][msg.sender] -= _value;\n\n        emit Transfer(_from, _to, _value);\n\n        return true;\n    }\n}\n",
  "sourcePath": "/home/knights/Desktop/spectre-token/spectre_token_sale-master/contracts/SpectreToken.sol",
  "compiler": {
    "name": "solc",
    "version": "0.5.8+commit.23d335f2.Emscripten.clang"
  },
  "schemaVersion": "3.0.16",
  "updatedAt": "2019-09-26T13:23:19.904Z",
  "devdoc": {
    "methods": {}
  },
  "userdoc": {
    "methods": {}
  }
}